{
  "contractName": "Rescue",
  "abi": [
    {
      "constant": true,
      "inputs": [
        {
          "name": "",
          "type": "address"
        }
      ],
      "name": "balances",
      "outputs": [
        {
          "name": "",
          "type": "uint256"
        }
      ],
      "payable": false,
      "stateMutability": "view",
      "type": "function",
      "signature": "0x27e235e3"
    },
    {
      "constant": true,
      "inputs": [
        {
          "name": "",
          "type": "address"
        }
      ],
      "name": "helpers",
      "outputs": [
        {
          "name": "hpno",
          "type": "uint256"
        },
        {
          "name": "helper",
          "type": "address"
        },
        {
          "name": "name",
          "type": "string"
        },
        {
          "name": "location",
          "type": "string"
        },
        {
          "name": "status",
          "type": "uint8"
        },
        {
          "name": "bal",
          "type": "uint256"
        }
      ],
      "payable": false,
      "stateMutability": "view",
      "type": "function",
      "signature": "0x2a41e02e"
    },
    {
      "constant": true,
      "inputs": [],
      "name": "owner",
      "outputs": [
        {
          "name": "",
          "type": "address"
        }
      ],
      "payable": false,
      "stateMutability": "view",
      "type": "function",
      "signature": "0x8da5cb5b"
    },
    {
      "constant": true,
      "inputs": [
        {
          "name": "",
          "type": "address"
        }
      ],
      "name": "users",
      "outputs": [
        {
          "name": "usno",
          "type": "uint256"
        },
        {
          "name": "user",
          "type": "address"
        },
        {
          "name": "name",
          "type": "string"
        },
        {
          "name": "location",
          "type": "string"
        },
        {
          "name": "status",
          "type": "uint8"
        },
        {
          "name": "bal",
          "type": "uint256"
        }
      ],
      "payable": false,
      "stateMutability": "view",
      "type": "function",
      "signature": "0xa87430ba"
    },
    {
      "constant": true,
      "inputs": [
        {
          "name": "",
          "type": "address"
        }
      ],
      "name": "donors",
      "outputs": [
        {
          "name": "dnno",
          "type": "uint256"
        },
        {
          "name": "donor",
          "type": "address"
        },
        {
          "name": "name",
          "type": "string"
        },
        {
          "name": "location",
          "type": "string"
        },
        {
          "name": "status",
          "type": "uint8"
        },
        {
          "name": "bal",
          "type": "uint256"
        }
      ],
      "payable": false,
      "stateMutability": "view",
      "type": "function",
      "signature": "0xca0cdea8"
    },
    {
      "inputs": [],
      "payable": false,
      "stateMutability": "nonpayable",
      "type": "constructor",
      "signature": "constructor"
    },
    {
      "anonymous": false,
      "inputs": [
        {
          "indexed": false,
          "name": "usno",
          "type": "uint256"
        },
        {
          "indexed": false,
          "name": "user",
          "type": "address"
        },
        {
          "indexed": false,
          "name": "name",
          "type": "string"
        },
        {
          "indexed": false,
          "name": "location",
          "type": "string"
        },
        {
          "indexed": false,
          "name": "bal",
          "type": "uint256"
        }
      ],
      "name": "userCreated",
      "type": "event",
      "signature": "0xcdb87ca6cf983d86c99f38f261eeaec9fa31280b32a57ac57dfc32b61f642cd4"
    },
    {
      "anonymous": false,
      "inputs": [
        {
          "indexed": false,
          "name": "ddno",
          "type": "uint256"
        },
        {
          "indexed": false,
          "name": "helper",
          "type": "address"
        },
        {
          "indexed": false,
          "name": "name",
          "type": "string"
        },
        {
          "indexed": false,
          "name": "location",
          "type": "string"
        },
        {
          "indexed": false,
          "name": "bal",
          "type": "uint256"
        }
      ],
      "name": "helperCreated",
      "type": "event",
      "signature": "0x4199b32e37fda07e563311fcf792b6a7121fdcd01fb51d849d76893e07e4d53f"
    },
    {
      "anonymous": false,
      "inputs": [
        {
          "indexed": false,
          "name": "hpno",
          "type": "uint256"
        },
        {
          "indexed": false,
          "name": "donor",
          "type": "address"
        },
        {
          "indexed": false,
          "name": "name",
          "type": "string"
        },
        {
          "indexed": false,
          "name": "location",
          "type": "string"
        },
        {
          "indexed": false,
          "name": "bal",
          "type": "uint256"
        }
      ],
      "name": "donorCreated",
      "type": "event",
      "signature": "0x12916e684eeaeebaf5f6c05e03e7d1ba6650fd17941022dfd84aed2d366840b4"
    },
    {
      "anonymous": false,
      "inputs": [
        {
          "indexed": false,
          "name": "user",
          "type": "address"
        },
        {
          "indexed": false,
          "name": "helper",
          "type": "address"
        },
        {
          "indexed": false,
          "name": "amountTransferred",
          "type": "uint256"
        }
      ],
      "name": "userTohelper",
      "type": "event",
      "signature": "0x92ada07bdf9d52d1f4208b3e1f7347f23b6dd77f67e91e446eda7bf35b9c80c9"
    },
    {
      "anonymous": false,
      "inputs": [
        {
          "indexed": false,
          "name": "donor",
          "type": "address"
        },
        {
          "indexed": false,
          "name": "user",
          "type": "address"
        },
        {
          "indexed": false,
          "name": "amountTransferred",
          "type": "uint256"
        }
      ],
      "name": "donorTouser",
      "type": "event",
      "signature": "0x2ecadd226ad339ca4cc5e506d05787d7716251930c6b1316de657ddd6c8bbd50"
    },
    {
      "anonymous": false,
      "inputs": [
        {
          "indexed": false,
          "name": "helper",
          "type": "address"
        },
        {
          "indexed": false,
          "name": "amountWithdraw",
          "type": "uint256"
        },
        {
          "indexed": false,
          "name": "totalbal",
          "type": "uint256"
        }
      ],
      "name": "helperWithdrawal",
      "type": "event",
      "signature": "0x554c6c4a6bf09787ac1439f402418d5d6ffbf7a7666592d8ac98fece45ec84f7"
    },
    {
      "constant": true,
      "inputs": [],
      "name": "getBalance",
      "outputs": [
        {
          "name": "",
          "type": "uint256"
        }
      ],
      "payable": false,
      "stateMutability": "view",
      "type": "function",
      "signature": "0x12065fe0"
    },
    {
      "constant": true,
      "inputs": [],
      "name": "getUserBal",
      "outputs": [
        {
          "name": "",
          "type": "uint256"
        }
      ],
      "payable": false,
      "stateMutability": "view",
      "type": "function",
      "signature": "0x17cc5e1e"
    },
    {
      "constant": true,
      "inputs": [],
      "name": "getHelperbal",
      "outputs": [
        {
          "name": "",
          "type": "uint256"
        }
      ],
      "payable": false,
      "stateMutability": "view",
      "type": "function",
      "signature": "0xe2d843b2"
    },
    {
      "constant": true,
      "inputs": [],
      "name": "getUserCount",
      "outputs": [
        {
          "name": "",
          "type": "uint256"
        }
      ],
      "payable": false,
      "stateMutability": "view",
      "type": "function",
      "signature": "0xb5cb15f7"
    },
    {
      "constant": true,
      "inputs": [],
      "name": "getDonorCount",
      "outputs": [
        {
          "name": "",
          "type": "uint256"
        }
      ],
      "payable": false,
      "stateMutability": "view",
      "type": "function",
      "signature": "0x69bc2f1e"
    },
    {
      "constant": true,
      "inputs": [],
      "name": "getHelperCount",
      "outputs": [
        {
          "name": "",
          "type": "uint256"
        }
      ],
      "payable": false,
      "stateMutability": "view",
      "type": "function",
      "signature": "0x1ec2f35f"
    },
    {
      "constant": true,
      "inputs": [],
      "name": "getuserAddresslist",
      "outputs": [
        {
          "name": "",
          "type": "address[]"
        }
      ],
      "payable": false,
      "stateMutability": "view",
      "type": "function",
      "signature": "0xb620dacc"
    },
    {
      "constant": false,
      "inputs": [
        {
          "name": "_name",
          "type": "string"
        },
        {
          "name": "_location",
          "type": "string"
        }
      ],
      "name": "setNewuser",
      "outputs": [
        {
          "name": "",
          "type": "bool"
        }
      ],
      "payable": false,
      "stateMutability": "nonpayable",
      "type": "function",
      "signature": "0x8a5da248"
    },
    {
      "constant": false,
      "inputs": [
        {
          "name": "_name",
          "type": "string"
        },
        {
          "name": "_location",
          "type": "string"
        }
      ],
      "name": "setDonor",
      "outputs": [
        {
          "name": "",
          "type": "bool"
        }
      ],
      "payable": false,
      "stateMutability": "nonpayable",
      "type": "function",
      "signature": "0x35465203"
    },
    {
      "constant": false,
      "inputs": [
        {
          "name": "_name",
          "type": "string"
        },
        {
          "name": "_location",
          "type": "string"
        }
      ],
      "name": "setHelper",
      "outputs": [
        {
          "name": "",
          "type": "bool"
        }
      ],
      "payable": false,
      "stateMutability": "nonpayable",
      "type": "function",
      "signature": "0xbc681c5c"
    },
    {
      "constant": false,
      "inputs": [
        {
          "name": "_to",
          "type": "address"
        }
      ],
      "name": "donate",
      "outputs": [
        {
          "name": "",
          "type": "bool"
        }
      ],
      "payable": true,
      "stateMutability": "payable",
      "type": "function",
      "signature": "0x00362a95"
    },
    {
      "constant": false,
      "inputs": [
        {
          "name": "_to",
          "type": "address"
        },
        {
          "name": "amount",
          "type": "uint256"
        }
      ],
      "name": "userBuyfromHelper",
      "outputs": [
        {
          "name": "",
          "type": "bool"
        }
      ],
      "payable": true,
      "stateMutability": "payable",
      "type": "function",
      "signature": "0xec2f6d6a"
    },
    {
      "constant": false,
      "inputs": [
        {
          "name": "withdrawalAmount",
          "type": "uint256"
        }
      ],
      "name": "helperWithdraw",
      "outputs": [
        {
          "name": "",
          "type": "uint256"
        }
      ],
      "payable": false,
      "stateMutability": "nonpayable",
      "type": "function",
      "signature": "0x801050ca"
    }
  ],
  "bytecode": "0x608060405234801561001057600080fd5b50336000806101000a81548173ffffffffffffffffffffffffffffffffffffffff021916908373ffffffffffffffffffffffffffffffffffffffff160217905550600060018190555060006002819055506000600381905550612c65806100786000396000f3fe6080604052600436106100fb576000357c0100000000000000000000000000000000000000000000000000000000900463ffffffff168062362a951461010057806312065fe01461015c57806317cc5e1e146101875780631ec2f35f146101b257806327e235e3146101dd5780632a41e02e1461024257806335465203146103ce57806369bc2f1e14610545578063801050ca146105705780638a5da248146105bf5780638da5cb5b14610736578063a87430ba1461078d578063b5cb15f714610919578063b620dacc14610944578063bc681c5c146109b0578063ca0cdea814610b27578063e2d843b214610cb3578063ec2f6d6a14610cde575b600080fd5b6101426004803603602081101561011657600080fd5b81019080803573ffffffffffffffffffffffffffffffffffffffff169060200190929190505050610d44565b604051808215151515815260200191505060405180910390f35b34801561016857600080fd5b5061017161105c565b6040518082815260200191505060405180910390f35b34801561019357600080fd5b5061019c61107b565b6040518082815260200191505060405180910390f35b3480156101be57600080fd5b506101c76110c5565b6040518082815260200191505060405180910390f35b3480156101e957600080fd5b5061022c6004803603602081101561020057600080fd5b81019080803573ffffffffffffffffffffffffffffffffffffffff1690602001909291905050506110cf565b6040518082815260200191505060405180910390f35b34801561024e57600080fd5b506102916004803603602081101561026557600080fd5b81019080803573ffffffffffffffffffffffffffffffffffffffff1690602001909291905050506110e7565b604051808781526020018673ffffffffffffffffffffffffffffffffffffffff1673ffffffffffffffffffffffffffffffffffffffff16815260200180602001806020018560028111156102e157fe5b60ff168152602001848152602001838103835287818151815260200191508051906020019080838360005b8381101561032757808201518184015260208101905061030c565b50505050905090810190601f1680156103545780820380516001836020036101000a031916815260200191505b50838103825286818151815260200191508051906020019080838360005b8381101561038d578082015181840152602081019050610372565b50505050905090810190601f1680156103ba5780820380516001836020036101000a031916815260200191505b509850505050505050505060405180910390f35b3480156103da57600080fd5b5061052b600480360360408110156103f157600080fd5b810190808035906020019064010000000081111561040e57600080fd5b82018360208201111561042057600080fd5b8035906020019184600183028401116401000000008311171561044257600080fd5b91908080601f016020809104026020016040519081016040528093929190818152602001838380828437600081840152601f19601f820116905080830192505050505050509192919290803590602001906401000000008111156104a557600080fd5b8201836020820111156104b757600080fd5b803590602001918460018302840111640100000000831117156104d957600080fd5b91908080601f016020809104026020016040519081016040528093929190818152602001838380828437600081840152601f19601f820116905080830192505050505050509192919290505050611280565b604051808215151515815260200191505060405180910390f35b34801561055157600080fd5b5061055a61173e565b6040518082815260200191505060405180910390f35b34801561057c57600080fd5b506105a96004803603602081101561059357600080fd5b8101908080359060200190929190505050611748565b6040518082815260200191505060405180910390f35b3480156105cb57600080fd5b5061071c600480360360408110156105e257600080fd5b81019080803590602001906401000000008111156105ff57600080fd5b82018360208201111561061157600080fd5b8035906020019184600183028401116401000000008311171561063357600080fd5b91908080601f016020809104026020016040519081016040528093929190818152602001838380828437600081840152601f19601f8201169050808301925050505050505091929192908035906020019064010000000081111561069657600080fd5b8201836020820111156106a857600080fd5b803590602001918460018302840111640100000000831117156106ca57600080fd5b91908080601f016020809104026020016040519081016040528093929190818152602001838380828437600081840152601f19601f820116905080830192505050505050509192919290505050611a37565b604051808215151515815260200191505060405180910390f35b34801561074257600080fd5b5061074b611f6f565b604051808273ffffffffffffffffffffffffffffffffffffffff1673ffffffffffffffffffffffffffffffffffffffff16815260200191505060405180910390f35b34801561079957600080fd5b506107dc600480360360208110156107b057600080fd5b81019080803573ffffffffffffffffffffffffffffffffffffffff169060200190929190505050611f94565b604051808781526020018673ffffffffffffffffffffffffffffffffffffffff1673ffffffffffffffffffffffffffffffffffffffff168152602001806020018060200185600281111561082c57fe5b60ff168152602001848152602001838103835287818151815260200191508051906020019080838360005b83811015610872578082015181840152602081019050610857565b50505050905090810190601f16801561089f5780820380516001836020036101000a031916815260200191505b50838103825286818151815260200191508051906020019080838360005b838110156108d85780820151818401526020810190506108bd565b50505050905090810190601f1680156109055780820380516001836020036101000a031916815260200191505b509850505050505050505060405180910390f35b34801561092557600080fd5b5061092e61212d565b6040518082815260200191505060405180910390f35b34801561095057600080fd5b50610959612137565b6040518080602001828103825283818151815260200191508051906020019060200280838360005b8381101561099c578082015181840152602081019050610981565b505050509050019250505060405180910390f35b3480156109bc57600080fd5b50610b0d600480360360408110156109d357600080fd5b81019080803590602001906401000000008111156109f057600080fd5b820183602082011115610a0257600080fd5b80359060200191846001830284011164010000000083111715610a2457600080fd5b91908080601f016020809104026020016040519081016040528093929190818152602001838380828437600081840152601f19601f82011690508083019250505050505050919291929080359060200190640100000000811115610a8757600080fd5b820183602082011115610a9957600080fd5b80359060200191846001830284011164010000000083111715610abb57600080fd5b91908080601f016020809104026020016040519081016040528093929190818152602001838380828437600081840152601f19601f8201169050808301925050505050505091929192905050506121c5565b604051808215151515815260200191505060405180910390f35b348015610b3357600080fd5b50610b7660048036036020811015610b4a57600080fd5b81019080803573ffffffffffffffffffffffffffffffffffffffff16906020019092919050505061266c565b604051808781526020018673ffffffffffffffffffffffffffffffffffffffff1673ffffffffffffffffffffffffffffffffffffffff1681526020018060200180602001856002811115610bc657fe5b60ff168152602001848152602001838103835287818151815260200191508051906020019080838360005b83811015610c0c578082015181840152602081019050610bf1565b50505050905090810190601f168015610c395780820380516001836020036101000a031916815260200191505b50838103825286818151815260200191508051906020019080838360005b83811015610c72578082015181840152602081019050610c57565b50505050905090810190601f168015610c9f5780820380516001836020036101000a031916815260200191505b509850505050505050505060405180910390f35b348015610cbf57600080fd5b50610cc8612805565b6040518082815260200191505060405180910390f35b610d2a60048036036040811015610cf457600080fd5b81019080803573ffffffffffffffffffffffffffffffffffffffff1690602001909291908035906020019092919050505061284f565b604051808215151515815260200191505060405180910390f35b6000806002811115610d5257fe5b600560003373ffffffffffffffffffffffffffffffffffffffff1673ffffffffffffffffffffffffffffffffffffffff16815260200190815260200160002060040160009054906101000a900460ff166002811115610dad57fe5b141515610db957600080fd5b600460008373ffffffffffffffffffffffffffffffffffffffff1673ffffffffffffffffffffffffffffffffffffffff16815260200190815260200160002060010160009054906101000a900473ffffffffffffffffffffffffffffffffffffffff1673ffffffffffffffffffffffffffffffffffffffff168273ffffffffffffffffffffffffffffffffffffffff16148015610ee35750600560003373ffffffffffffffffffffffffffffffffffffffff1673ffffffffffffffffffffffffffffffffffffffff16815260200190815260200160002060010160009054906101000a900473ffffffffffffffffffffffffffffffffffffffff1673ffffffffffffffffffffffffffffffffffffffff163373ffffffffffffffffffffffffffffffffffffffff16145b1515610eee57600080fd5b343373ffffffffffffffffffffffffffffffffffffffff163110151515610f1457600080fd5b34600560003373ffffffffffffffffffffffffffffffffffffffff1673ffffffffffffffffffffffffffffffffffffffff1681526020019081526020016000206005016000828254039250508190555034600460008473ffffffffffffffffffffffffffffffffffffffff1673ffffffffffffffffffffffffffffffffffffffff168152602001908152602001600020600501600082825401925050819055507f2ecadd226ad339ca4cc5e506d05787d7716251930c6b1316de657ddd6c8bbd50338334604051808473ffffffffffffffffffffffffffffffffffffffff1673ffffffffffffffffffffffffffffffffffffffff1681526020018373ffffffffffffffffffffffffffffffffffffffff1673ffffffffffffffffffffffffffffffffffffffff168152602001828152602001935050505060405180910390a160019050919050565b60003373ffffffffffffffffffffffffffffffffffffffff1631905090565b6000600460003373ffffffffffffffffffffffffffffffffffffffff1673ffffffffffffffffffffffffffffffffffffffff16815260200190815260200160002060050154905090565b6000600354905090565b60076020528060005260406000206000915090505481565b60066020528060005260406000206000915090508060000154908060010160009054906101000a900473ffffffffffffffffffffffffffffffffffffffff1690806002018054600181600116156101000203166002900480601f0160208091040260200160405190810160405280929190818152602001828054600181600116156101000203166002900480156111bf5780601f10611194576101008083540402835291602001916111bf565b820191906000526020600020905b8154815290600101906020018083116111a257829003601f168201915b505050505090806003018054600181600116156101000203166002900480601f01602080910402602001604051908101604052809291908181526020018280546001816001161561010002031660029004801561125d5780601f106112325761010080835404028352916020019161125d565b820191906000526020600020905b81548152906001019060200180831161124057829003601f168201915b5050505050908060040160009054906101000a900460ff16908060050154905086565b6000600460003373ffffffffffffffffffffffffffffffffffffffff1673ffffffffffffffffffffffffffffffffffffffff16815260200190815260200160002060010160009054906101000a900473ffffffffffffffffffffffffffffffffffffffff1673ffffffffffffffffffffffffffffffffffffffff163373ffffffffffffffffffffffffffffffffffffffff161415151561131f57600080fd5b600560003373ffffffffffffffffffffffffffffffffffffffff1673ffffffffffffffffffffffffffffffffffffffff16815260200190815260200160002060010160009054906101000a900473ffffffffffffffffffffffffffffffffffffffff1673ffffffffffffffffffffffffffffffffffffffff163373ffffffffffffffffffffffffffffffffffffffff16141515156113bc57600080fd5b600660003373ffffffffffffffffffffffffffffffffffffffff1673ffffffffffffffffffffffffffffffffffffffff16815260200190815260200160002060010160009054906101000a900473ffffffffffffffffffffffffffffffffffffffff1673ffffffffffffffffffffffffffffffffffffffff163373ffffffffffffffffffffffffffffffffffffffff161415151561145957600080fd5b60c06040519081016040528060025481526020013373ffffffffffffffffffffffffffffffffffffffff168152602001848152602001838152602001600060028111156114a257fe5b81526020013373ffffffffffffffffffffffffffffffffffffffff1631815250600560003373ffffffffffffffffffffffffffffffffffffffff1673ffffffffffffffffffffffffffffffffffffffff1681526020019081526020016000206000820151816000015560208201518160010160006101000a81548173ffffffffffffffffffffffffffffffffffffffff021916908373ffffffffffffffffffffffffffffffffffffffff160217905550604082015181600201908051906020019061156e929190612b94565b50606082015181600301908051906020019061158b929190612b94565b5060808201518160040160006101000a81548160ff021916908360028111156115b057fe5b021790555060a082015181600501559050506001600254016002819055507f12916e684eeaeebaf5f6c05e03e7d1ba6650fd17941022dfd84aed2d366840b46002543385853373ffffffffffffffffffffffffffffffffffffffff1631604051808681526020018573ffffffffffffffffffffffffffffffffffffffff1673ffffffffffffffffffffffffffffffffffffffff1681526020018060200180602001848152602001838103835286818151815260200191508051906020019080838360005b8381101561168f578082015181840152602081019050611674565b50505050905090810190601f1680156116bc5780820380516001836020036101000a031916815260200191505b50838103825285818151815260200191508051906020019080838360005b838110156116f55780820151818401526020810190506116da565b50505050905090810190601f1680156117225780820380516001836020036101000a031916815260200191505b5097505050505050505060405180910390a16001905092915050565b6000600254905090565b600060028081111561175657fe5b600460003373ffffffffffffffffffffffffffffffffffffffff1673ffffffffffffffffffffffffffffffffffffffff16815260200190815260200160002060040160009054906101000a900460ff1660028111156117b157fe5b1415156117bd57600080fd5b600660003373ffffffffffffffffffffffffffffffffffffffff1673ffffffffffffffffffffffffffffffffffffffff16815260200190815260200160002060010160009054906101000a900473ffffffffffffffffffffffffffffffffffffffff1673ffffffffffffffffffffffffffffffffffffffff163373ffffffffffffffffffffffffffffffffffffffff1614801561189c5750600660003373ffffffffffffffffffffffffffffffffffffffff1673ffffffffffffffffffffffffffffffffffffffff168152602001908152602001600020600501548211155b15156118a757600080fd5b81600660003373ffffffffffffffffffffffffffffffffffffffff1673ffffffffffffffffffffffffffffffffffffffff1681526020019081526020016000206005016000828254039250508190555081600760003373ffffffffffffffffffffffffffffffffffffffff1673ffffffffffffffffffffffffffffffffffffffff168152602001908152602001600020600082825401925050819055506000600660003373ffffffffffffffffffffffffffffffffffffffff1673ffffffffffffffffffffffffffffffffffffffff168152602001908152602001600020600501819055507f554c6c4a6bf09787ac1439f402418d5d6ffbf7a7666592d8ac98fece45ec84f733833373ffffffffffffffffffffffffffffffffffffffff16318501604051808473ffffffffffffffffffffffffffffffffffffffff1673ffffffffffffffffffffffffffffffffffffffff168152602001838152602001828152602001935050505060405180910390a13373ffffffffffffffffffffffffffffffffffffffff16319050919050565b6000600460003373ffffffffffffffffffffffffffffffffffffffff1673ffffffffffffffffffffffffffffffffffffffff16815260200190815260200160002060010160009054906101000a900473ffffffffffffffffffffffffffffffffffffffff1673ffffffffffffffffffffffffffffffffffffffff163373ffffffffffffffffffffffffffffffffffffffff1614151515611ad657600080fd5b600560003373ffffffffffffffffffffffffffffffffffffffff1673ffffffffffffffffffffffffffffffffffffffff16815260200190815260200160002060010160009054906101000a900473ffffffffffffffffffffffffffffffffffffffff1673ffffffffffffffffffffffffffffffffffffffff163373ffffffffffffffffffffffffffffffffffffffff1614151515611b7357600080fd5b600660003373ffffffffffffffffffffffffffffffffffffffff1673ffffffffffffffffffffffffffffffffffffffff16815260200190815260200160002060010160009054906101000a900473ffffffffffffffffffffffffffffffffffffffff1673ffffffffffffffffffffffffffffffffffffffff163373ffffffffffffffffffffffffffffffffffffffff1614151515611c1057600080fd5b60c06040519081016040528060015481526020013373ffffffffffffffffffffffffffffffffffffffff16815260200184815260200183815260200160016002811115611c5957fe5b81526020016000815250600460003373ffffffffffffffffffffffffffffffffffffffff1673ffffffffffffffffffffffffffffffffffffffff1681526020019081526020016000206000820151816000015560208201518160010160006101000a81548173ffffffffffffffffffffffffffffffffffffffff021916908373ffffffffffffffffffffffffffffffffffffffff1602179055506040820151816002019080519060200190611d0f929190612b94565b506060820151816003019080519060200190611d2c929190612b94565b5060808201518160040160006101000a81548160ff02191690836002811115611d5157fe5b021790555060a0820151816005015590505060018054016001819055507fcdb87ca6cf983d86c99f38f261eeaec9fa31280b32a57ac57dfc32b61f642cd4600154338585600460003373ffffffffffffffffffffffffffffffffffffffff1673ffffffffffffffffffffffffffffffffffffffff16815260200190815260200160002060050154604051808681526020018573ffffffffffffffffffffffffffffffffffffffff1673ffffffffffffffffffffffffffffffffffffffff1681526020018060200180602001848152602001838103835286818151815260200191508051906020019080838360005b83811015611e5a578082015181840152602081019050611e3f565b50505050905090810190601f168015611e875780820380516001836020036101000a031916815260200191505b50838103825285818151815260200191508051906020019080838360005b83811015611ec0578082015181840152602081019050611ea5565b50505050905090810190601f168015611eed5780820380516001836020036101000a031916815260200191505b5097505050505050505060405180910390a160083390806001815401808255809150509060018203906000526020600020016000909192909190916101000a81548173ffffffffffffffffffffffffffffffffffffffff021916908373ffffffffffffffffffffffffffffffffffffffff160217905550506001905092915050565b6000809054906101000a900473ffffffffffffffffffffffffffffffffffffffff1681565b60046020528060005260406000206000915090508060000154908060010160009054906101000a900473ffffffffffffffffffffffffffffffffffffffff1690806002018054600181600116156101000203166002900480601f01602080910402602001604051908101604052809291908181526020018280546001816001161561010002031660029004801561206c5780601f106120415761010080835404028352916020019161206c565b820191906000526020600020905b81548152906001019060200180831161204f57829003601f168201915b505050505090806003018054600181600116156101000203166002900480601f01602080910402602001604051908101604052809291908181526020018280546001816001161561010002031660029004801561210a5780601f106120df5761010080835404028352916020019161210a565b820191906000526020600020905b8154815290600101906020018083116120ed57829003601f168201915b5050505050908060040160009054906101000a900460ff16908060050154905086565b6000600154905090565b606060088054806020026020016040519081016040528092919081815260200182805480156121bb57602002820191906000526020600020905b8160009054906101000a900473ffffffffffffffffffffffffffffffffffffffff1673ffffffffffffffffffffffffffffffffffffffff1681526020019060010190808311612171575b5050505050905090565b6000600460003373ffffffffffffffffffffffffffffffffffffffff1673ffffffffffffffffffffffffffffffffffffffff16815260200190815260200160002060010160009054906101000a900473ffffffffffffffffffffffffffffffffffffffff1673ffffffffffffffffffffffffffffffffffffffff163373ffffffffffffffffffffffffffffffffffffffff161415151561226457600080fd5b600560003373ffffffffffffffffffffffffffffffffffffffff1673ffffffffffffffffffffffffffffffffffffffff16815260200190815260200160002060010160009054906101000a900473ffffffffffffffffffffffffffffffffffffffff1673ffffffffffffffffffffffffffffffffffffffff163373ffffffffffffffffffffffffffffffffffffffff161415151561230157600080fd5b600660003373ffffffffffffffffffffffffffffffffffffffff1673ffffffffffffffffffffffffffffffffffffffff16815260200190815260200160002060010160009054906101000a900473ffffffffffffffffffffffffffffffffffffffff1673ffffffffffffffffffffffffffffffffffffffff163373ffffffffffffffffffffffffffffffffffffffff161415151561239e57600080fd5b60c06040519081016040528060035481526020013373ffffffffffffffffffffffffffffffffffffffff1681526020018481526020018381526020016002808111156123e657fe5b81526020016000815250600660003373ffffffffffffffffffffffffffffffffffffffff1673ffffffffffffffffffffffffffffffffffffffff1681526020019081526020016000206000820151816000015560208201518160010160006101000a81548173ffffffffffffffffffffffffffffffffffffffff021916908373ffffffffffffffffffffffffffffffffffffffff160217905550604082015181600201908051906020019061249c929190612b94565b5060608201518160030190805190602001906124b9929190612b94565b5060808201518160040160006101000a81548160ff021916908360028111156124de57fe5b021790555060a082015181600501559050506001600354016003819055507f4199b32e37fda07e563311fcf792b6a7121fdcd01fb51d849d76893e07e4d53f6003543385853373ffffffffffffffffffffffffffffffffffffffff1631604051808681526020018573ffffffffffffffffffffffffffffffffffffffff1673ffffffffffffffffffffffffffffffffffffffff1681526020018060200180602001848152602001838103835286818151815260200191508051906020019080838360005b838110156125bd5780820151818401526020810190506125a2565b50505050905090810190601f1680156125ea5780820380516001836020036101000a031916815260200191505b50838103825285818151815260200191508051906020019080838360005b83811015612623578082015181840152602081019050612608565b50505050905090810190601f1680156126505780820380516001836020036101000a031916815260200191505b5097505050505050505060405180910390a16001905092915050565b60056020528060005260406000206000915090508060000154908060010160009054906101000a900473ffffffffffffffffffffffffffffffffffffffff1690806002018054600181600116156101000203166002900480601f0160208091040260200160405190810160405280929190818152602001828054600181600116156101000203166002900480156127445780601f1061271957610100808354040283529160200191612744565b820191906000526020600020905b81548152906001019060200180831161272757829003601f168201915b505050505090806003018054600181600116156101000203166002900480601f0160208091040260200160405190810160405280929190818152602001828054600181600116156101000203166002900480156127e25780601f106127b7576101008083540402835291602001916127e2565b820191906000526020600020905b8154815290600101906020018083116127c557829003601f168201915b5050505050908060040160009054906101000a900460ff16908060050154905086565b6000600660003373ffffffffffffffffffffffffffffffffffffffff1673ffffffffffffffffffffffffffffffffffffffff16815260200190815260200160002060050154905090565b60006001600281111561285e57fe5b600460003373ffffffffffffffffffffffffffffffffffffffff1673ffffffffffffffffffffffffffffffffffffffff16815260200190815260200160002060040160009054906101000a900460ff1660028111156128b957fe5b1415156128c557600080fd5b600460003373ffffffffffffffffffffffffffffffffffffffff1673ffffffffffffffffffffffffffffffffffffffff16815260200190815260200160002060010160009054906101000a900473ffffffffffffffffffffffffffffffffffffffff1673ffffffffffffffffffffffffffffffffffffffff163373ffffffffffffffffffffffffffffffffffffffff161480156129ef5750600660008473ffffffffffffffffffffffffffffffffffffffff1673ffffffffffffffffffffffffffffffffffffffff16815260200190815260200160002060010160009054906101000a900473ffffffffffffffffffffffffffffffffffffffff1673ffffffffffffffffffffffffffffffffffffffff168373ffffffffffffffffffffffffffffffffffffffff16145b15156129fa57600080fd5b81600460003373ffffffffffffffffffffffffffffffffffffffff1673ffffffffffffffffffffffffffffffffffffffff1681526020019081526020016000206005015410151515612a4b57600080fd5b81600460003373ffffffffffffffffffffffffffffffffffffffff1673ffffffffffffffffffffffffffffffffffffffff1681526020019081526020016000206005016000828254039250508190555081600660008573ffffffffffffffffffffffffffffffffffffffff1673ffffffffffffffffffffffffffffffffffffffff168152602001908152602001600020600501600082825401925050819055507f92ada07bdf9d52d1f4208b3e1f7347f23b6dd77f67e91e446eda7bf35b9c80c9338484604051808473ffffffffffffffffffffffffffffffffffffffff1673ffffffffffffffffffffffffffffffffffffffff1681526020018373ffffffffffffffffffffffffffffffffffffffff1673ffffffffffffffffffffffffffffffffffffffff168152602001828152602001935050505060405180910390a16001905092915050565b828054600181600116156101000203166002900490600052602060002090601f016020900481019282601f10612bd557805160ff1916838001178555612c03565b82800160010185558215612c03579182015b82811115612c02578251825591602001919060010190612be7565b5b509050612c109190612c14565b5090565b612c3691905b80821115612c32576000816000905550600101612c1a565b5090565b9056fea165627a7a72305820421d2ee1c40aaf02fa2e5e060d1f85cbf4aeed35b4cb2642cdbee11c48933d710029",
  "source": "pragma solidity ^0.5.0;\n\n// import 'zeppelin-solidity/contracts/ownership/Ownable.sol';\n//@title RescuePlatform\ncontract Rescue {\n\n    //owner of address\n    address public owner;\n\n    //keep count of different users\n    uint userCount;\n    uint donorCount;\n    uint helperCount;\n    \n    //map to a struct users, donor, helpers\n    mapping(address => User) public users;\n    mapping(address => Donor) public donors;\n    mapping(address => Helper) public helpers;\n    \n    mapping (address => uint) public balances;\n    \n\n    //keep track of states of users\n    enum Status { Donor, User, Helper }\n\n    //only owner can call\n    modifier onlyOwner() {\n        require(owner == msg.sender);\n        _;\n    }\n\n    //only donor can call function \n    modifier onlyDonor() {\n        require(donors[msg.sender].status == Status.Donor);\n        _;\n    }\n \n    //only user can call \n    modifier onlyUser() {\n        require(users[msg.sender].status == Status.User);\n        _;\n    }\n\n     //only helper can call function \n    modifier onlyHelper() {\n        require(users[msg.sender].status == Status.Helper);\n        _;\n    }\n    \n    event userCreated(uint usno, address user, string name, string location, uint bal);\n    event helperCreated( uint ddno, address helper, string name, string location, uint bal);\n    event donorCreated(uint hpno, address donor, string name, string location, uint bal);\n    \n    event userTohelper(address user, address helper, uint amountTransferred);\n    event donorTouser(address donor, address user, uint amountTransferred);\n    \n    event helperWithdrawal(address helper, uint amountWithdraw, uint totalbal);\n    \n\n    //runs only once on contract deployements sets initial counts to 0\n    constructor() public {\n\n    owner = msg.sender;\n    userCount = 0;\n    donorCount = 0;\n    helperCount = 0;\n    \n    }\n\n    //user struct\n    struct User {\n        uint usno;\n        address user;\n        string name;\n        string location;\n        Status status;\n        uint bal;\n        \n    }\n\n    address[] userAddresslist;\n    \n    //user struct\n    struct Donor {\n        uint dnno;\n        address donor;\n        string name;\n        string location;\n        Status status;\n        uint bal;\n        \n    }\n    \n    //user struct\n    struct Helper {\n        uint hpno;\n        address helper;\n        string name;\n        string location;\n        Status status;\n        uint bal;\n    }\n    \n    //get balance of msg.sender\n    function getBalance() public view returns (uint){\n           return msg.sender.balance; \n    }\n    \n     function getUserBal() public view returns (uint){\n           return users[msg.sender].bal; \n    }\n    \n    function getHelperbal() public view returns(uint){\n           return helpers[msg.sender].bal;\n    }\n    \n    //user count functions\n    function getUserCount() public view returns (uint){\n        return userCount;\n    }\n    function getDonorCount() public view returns (uint){\n        return donorCount;\n    }\n\n   function getHelperCount() public view returns (uint){\n        return helperCount;\n    }\n\n    function getuserAddresslist() public view returns (address[] memory) {\n      return userAddresslist;\n    }\n    \n\n\n    //@param: user will set name and location\n    //@dev: upgradeable to uport identity\n    //returns bool\n    function setNewuser(string memory _name, string memory _location) public returns (bool) {\n        require(msg.sender != users[msg.sender].user);\n        require (msg.sender != donors[msg.sender].donor);\n        require(msg.sender != helpers[msg.sender].helper);\n        \n        users[msg.sender] = User({ usno: userCount, user: msg.sender, name: _name, location: _location, status: Status.User, bal:0});\n        userCount = userCount + 1;\n        emit userCreated(userCount, msg.sender, _name, _location, users[msg.sender].bal);\n        userAddresslist.push(msg.sender);\n        return true; \n    }\n\n    function setDonor(string memory _name, string memory _location) public returns (bool) {\n        require(msg.sender != users[msg.sender].user);\n        require (msg.sender != donors[msg.sender].donor);\n        require(msg.sender != helpers[msg.sender].helper);\n        donors[msg.sender] = Donor({ dnno: donorCount, donor: msg.sender, name: _name, location: _location, status: Status.Donor, bal: msg.sender.balance});\n        donorCount = donorCount + 1;\n        emit donorCreated(donorCount, msg.sender, _name, _location, msg.sender.balance);\n        return true;\n    }\n   \n    function setHelper(string memory _name, string memory _location) public returns (bool) {\n        require(msg.sender != users[msg.sender].user);\n        require (msg.sender != donors[msg.sender].donor);\n        require(msg.sender != helpers[msg.sender].helper);\n        helpers[msg.sender] = Helper({ hpno:helperCount, helper:msg.sender, name: _name, location: _location, status: Status.Helper, bal: 0});\n        helperCount = helperCount + 1;\n        emit helperCreated(helperCount, msg.sender, _name, _location, msg.sender.balance);\n        return true;\n    }\n    //@param - address\n    //@dev - only allows donators to keep ETH balances and transfer to Users balances, if user is not in mapping\n        //error will throw\n        //works\n    function donate(address _to) public payable onlyDonor returns (bool){\n        require(_to == users[_to].user && msg.sender == donors[msg.sender].donor);\n        // require that reciever of donation address is in user mapping\n        require(msg.sender.balance >= msg.value);\n        donors[msg.sender].bal -= msg.value;\n        users[_to].bal += msg.value;\n        emit donorTouser(msg.sender, _to, msg.value);\n        return true;\n    }\n    \n    //@param address of helper to donate to and amount\n    //@dev fx is to allow users to make purchases from the helper for disaster relief items\n    //if not in the users mapping fx will fail\n    \n    function userBuyfromHelper(address _to, uint amount) public payable onlyUser returns (bool){\n         require(msg.sender == users[msg.sender].user && _to == helpers[_to].helper);\n        // require that reciever of donation address is in user mapping\n        require(users[msg.sender].bal >= amount);\n        users[msg.sender].bal -= amount;\n        helpers[_to].bal += amount;\n        emit userTohelper(msg.sender, _to, amount);\n        return true;\n    }\n    \n    function helperWithdraw(uint withdrawalAmount) public onlyHelper returns (uint){\n        require(msg.sender == helpers[msg.sender].helper && withdrawalAmount <= helpers[msg.sender].bal);\n        helpers[msg.sender].bal -= withdrawalAmount;\n        balances[msg.sender] += withdrawalAmount;\n        helpers[msg.sender].bal = 0;\n        emit helperWithdrawal(msg.sender, withdrawalAmount, withdrawalAmount + msg.sender.balance);\n        return msg.sender.balance;\n    } \n}",
  "sourcePath": "/Users/blockchaindeveloper/RescuePlatform/contracts/Rescue.sol",
  "compiler": {
    "name": "solc",
    "version": "0.5.0+commit.1d4f565a.Emscripten.clang"
  },
  "schemaVersion": "3.0.1",
  "updatedAt": "2019-04-07T23:36:00.903Z",
  "devdoc": {
    "methods": {}
  },
  "userdoc": {
    "methods": {}
  }
}